S013000052616E646F6D5F47616D652E73726563D7
S11300000C9446000C9465000C9465000C946500F7
S11300100C9465000C9465000C9465000C946500C8
S11300200C9465000C9465000C9465000C946500B8
S11300300C9465000C9465000C9465000C946500A8
S11300400C94D3010C9465000C9467000C948F00FD
S11300500C9465000C9465000C9465000C94650088
S11300600C9465000C9465000C9465000C94650078
S11300700C9465000C9465000C9465000C94650068
S11300800C9465000C9465000C94650011241FBE4B
S1130090CFEFD0E1DEBFCDBF11E0A0E0B1E0E4E8F6
S11300A0FCE000E00BBF02C007900D92A031B10745
S11300B0D9F722E0A0E1B1E001C01D92A731B20757
S11300C0E1F70E94FB010C9440060C9400001F927F
S11300D00F920FB60F9211240BB60F922F938F939A
S11300E09F93EF93FF93E09115028E2F8F5F8F778D
S11300F09CB120911402821731F0F0E0EC56FE4FCF
S1130100908380931502FF91EF919F918F912F918E
S11301100F900BBE0F900FBE0F901F9018951F925B
S11301200F920FB60F9211240BB60F928F939F93D9
S1130130EF93FF938091160290911301891759F060
S1130140E82FF0E0EC5EFE4F90819CB98F5F8F77D3
S11301508093160201C05598FF91EF919F918F9162
S11301600F900BBE0F900FBE0F901F90189583B188
S113017013B880911201811108C080910E019091F1
S11301800F0190931101809310012091100130917F
S11301901101C9016AE070E00E9434058C5F9E4F32
S11301A0FC01808182BB80911201823009F4979A0C
S11301B0C9016AE070E00E943405709311016093F4
S11301C0100123B13091120181E090E0032E01C0AF
S11301D0880F0A94EAF7282B23B9832F8F5F843082
S11301E018F48093120108951092120108959093C7
S11301F00F0180930E010895C498C598C698C798B6
S1130200A898A998AA98AB98AC98AD98AE98AF98CE
S1130210821711F0841335C0863031F168F48330CD
S1130220E9F028F48130B1F0823059F515C08430FA
S1130230B9F0853031F516C08930E1F028F4873003
S1130240A9F08830F1F414C08B30C1F0A8F08C30E0
S1130250C1F416C0C49A15C0C59A13C0C69A11C079
S1130260C79A0FC0A89A0DC0A99A0BC0AA9A09C030
S1130270AB9A07C0AC9A05C0AD9A03C0AE9A01C050
S1130280AF9A621711F0641335C0663031F168F427
S11302906330E9F028F46130B1F0623059F515C0EB
S11302A06430B9F0653031F516C06930E1F028F4F6
S11302B06730A9F06830F1F414C06B30C1F0A8F0D5
S11302C06C30C1F416C0C49A0895C59A0895C69AAC
S11302D00895C79A0895A89A0895A99A0895AA9A7C
S11302E00895AB9A0895AC9A0895AD9A0895AE9A7C
S11302F00895AF9A08958FEF8BBB1ABA9FE098BB0D
S113030020EF27BB15BA84BB12BA81BB23B992B9BB
S1130310109262008093610080E7809365008FE112
S11303208093640010BE85E083BF12BE11BE1FBC63
S11303301EBC1DBC1CBC17BC16BC1BBC1ABC19BC07
S113034018BC109279001092780015BC14BC13BC30
S113035010928B0010928A001092890010928800EB
S113036010928100109280001092870010928600F3
S113037010928500109284001092830010928200E3
S113038010926A001ABE19BE81E087BF10927D00E8
S11303901AB810929A0080E888B910BC16B81DB833
S11303A01092740008951F920F920FB60F921124A9
S11303B00BB60F922F933F934F935F936F937F935B
S11303C08F939F93AF93BF93EF93FF930E94B700D4
S11303D0FF91EF91BF91AF919F918F917F916F9119
S11303E05F914F913F912F910F900BBE0F900FBED5
S11303F00F901F9018950E947B01789481ED9FE0E7
S11304000E94BB05EC010E94B005BE016F5F7F4FE7
S113041081ED9FE00E94C10560E080E00E941C0520
S1130420C82F60E00E941C05D82F24E6C29FC0019B
S113043011248D0F911D0E94F70010E0113131F548
S11304402D2F4C2F6D2F8C2F0E94FC008FEF97EADD
S113045021E6815090402040E1F700C0000020E0F8
S113046040E060E080E00E94FC006C2F80E00E948D
S11304701C05C82F6D2F0E941C05D82F24E6C29F8F
S1130480C00111248D0F911D0E94F7006D2F8C2F38
S11304900E947503182F813129F06C2F8D2F0E9433
S11304A07503182F8C2F0E9489048D2F0E948904B4
S11304B0C5CF813009F018C18FE39FE10197F1F7AF
S11304C000C00000663009F48EC088F4633009F47B
S11304D04FC030F4613039F1623009F002C135C0E7
S11304E0643009F459C0653009F0FBC069C0693053
S11304F009F4B5C038F4673009F489C0683009F0EC
S1130500F0C099C06B3009F4CDC008F4B9C06C30A8
S113051009F0E7C0DAC08F5FEFE3F1E03197F1F75C
S113052000C0000002C080E091E029B38A3F08F0D7
S1130530D6C021702913EFCFD2C08F5FEFE3F1E073
S11305403197F1F700C0000002C080E091E029B3C8
S11305508A3F08F0C4C0269521702913EECFBFC08E
S11305608F5FEFE3F1E03197F1F700C0000002C0C4
S113057080E091E029B38A3F08F0B1C022FB222732
S113058020F92913EDCFABC08F5FEFE3F1E0319792
S1130590F1F700C0000002C080E091E029B38A3F77
S11305A008F09DC023FB222720F92913EDCF97C023
S11305B08F5FEFE3F1E03197F1F700C0000002C074
S11305C080E091E029B38A3F08F089C02295217028
S11305D02913EECF84C08F5FEFE3F1E03197F1F799
S11305E000C0000002C080E091E029B38A3F08F017
S11305F076C025FB222720F92913EDCF70C08F5F29
S1130600EFE3F1E03197F1F700C0000002C080E0B1
S113061091E029B38A3F08F062C026FB222720F923
S11306202913EDCF5CC08F5FEFE3F1E03197F1F771
S113063000C0000002C080E091E029B38A3F08F0C6
S11306404EC0221F2227221F2913EDCF48C08F5FDF
S1130650EFE3F1E03197F1F700C0000002C080E061
S113066091E026B38A3FD8F521702913F0CF37C023
S11306708F5FEFE3F1E03197F1F700C0000002C0B3
S113068080E091E026B38A3F50F526952170291326
S1130690EFCF25C08F5FEFE3F1E03197F1F700C0B2
S11306A0000002C080E091E026B38A3FC0F422FB40
S11306B0222720F92913EECF12C08F5FEFE3F1E078
S11306C03197F1F700C0000002C080E091E026B34A
S11306D08A3F28F423FB222720F92913EECF8A3FEF
S11306E011F080E0089581E10895863009F48EC008
S11306F088F4833009F44FC030F4813039F182300A
S113070009F002C135C0843009F459C0853009F0BC
S1130710FBC069C0893009F4B5C038F4873009F4E6
S113072089C0883009F0F0C099C08B3009F4CDC07D
S113073008F4B9C08C3009F0E7C0DAC08F5FEFE38A
S1130740F1E03197F1F700C0000002C080E091E0D1
S113075029B38A3F08F0D6C021702913EFCFD2C045
S11307608F5FEFE3F1E03197F1F700C0000002C0C2
S113077080E091E029B38A3F08F0C4C02695217037
S11307802913EECFBFC08F5FEFE3F1E03197F1F7AC
S113079000C0000002C080E091E029B38A3F08F065
S11307A0B1C022FB222720F92913EDCFABC08F5F04
S11307B0EFE3F1E03197F1F700C0000002C080E000
S11307C091E029B38A3F08F09DC023FB222720F93A
S11307D02913EDCF97C08F5FEFE3F1E03197F1F785
S11307E000C0000002C080E091E029B38A3F08F015
S11307F089C0229521702913EECF84C08F5FEFE367
S1130800F1E03197F1F700C0000002C080E091E010
S113081029B38A3F08F076C025FB222720F9291343
S1130820EDCF70C08F5FEFE3F1E03197F1F700C0D7
S1130830000002C080E091E029B38A3F08F062C062
S113084026FB222720F92913EDCF5CC08F5FEFE34D
S1130850F1E03197F1F700C0000002C080E091E0C0
S113086029B38A3F08F04EC0221F2227221F2913D2
S1130870EDCF48C08F5FEFE3F1E03197F1F700C0AF
S1130880000002C080E091E026B38A3FD8F52170D1
S11308902913F0CF37C08F5FEFE3F1E03197F1F721
S11308A000C0000002C080E091E026B38A3F50F50A
S11308B0269521702913EFCF25C08F5FEFE3F1E078
S11308C03197F1F700C0000002C080E091E026B348
S11308D08A3FC0F422FB222720F92913EECF12C04D
S11308E08F5FEFE3F1E03197F1F700C0000002C041
S11308F080E091E026B38A3F28F423FB222720F9E5
S11309002913EECF8A3F11F080E001C081E00C94FE
S11309105902863009F457C078F48330C9F130F4B1
S1130920813021F1823009F086C029C08430C9F1B8
S1130930853009F080C03EC0893009F45FC038F4C6
S1130940873009F449C0883009F075C04EC08B3037
S113095009F466C008F45BC08C3009F06CC069C04F
S11309608FE391E00197F1F700C00000C89BF8CF36
S113097008958FE391E00197F1F700C00000C99B4F
S1130980F8CF08958FE391E00197F1F700C00000DC
S1130990CA9BF8CF08958FE391E00197F1F700C067
S11309A00000CB9BF8CF08958FE391E00197F1F716
S11309B000C00000CC9BF8CF08958FE391E001972D
S11309C0F1F700C00000CD9BF8CF08958FE391E0CC
S11309D00197F1F700C00000CE9BF8CF08958FE394
S11309E091E00197F1F700C00000CF9BF8CF089584
S11309F08FE391E00197F1F700C00000B09BF8CFBE
S1130A0008958FE391E00197F1F700C00000B19BD6
S1130A10F8CF08958FE391E00197F1F700C000004B
S1130A20B29BF8CF08958FE391E00197F1F700C0EE
S1130A300000B39BF8CF08950F931F93CF93DF93D8
S1130A40182F062FCBEADAE00E94AC05BE010E9403
S1130A504805862F8F5F8017B9F38117A9F3DF91BB
S1130A60CF911F910F910895AA1BBB1B51E107C0A1
S1130A70AA1FBB1FA617B70710F0A61BB70B881F2A
S1130A80991F5A95A9F780959095BC01CD010895B9
S1130A9097FB072E16F4009407D077FD09D00E9427
S1130AA0340507FC05D03EF4909581959F4F089539
S1130AB0709561957F4F08958F929F92AF92BF92E8
S1130AC0CF92DF92EF92FF92CF93DF93EC01688194
S1130AD079818A819B81611571058105910521F4D4
S1130AE064E279ED8BE597E02DE133EF41E050E0EE
S1130AF00E94E30549015A019B01AC01A7EAB1E454
S1130B000E94FF056B017C01ACEEB4EFA5019401DA
S1130B100E940D06C60ED71EE81EF91EF7FE06C07B
S1130B2081E0C81AD108E10880E8F80AC882D982AD
S1130B30EA82FB82E894D7F8EE24FF24C601DF9111
S1130B40CF91FF90EF90DF90CF90BF90AF909F90A8
S1130B508F9008950C945C0580E091E00C945C0502
S1130B60A0E0B0E08093000190930101A093020102
S1130B70B09303010895A8E1B0E042E050E00C9482
S1130B80C8050E94D605272F0C94D705DC01CB019C
S1130B90FC01E199FECF06C0FFBBEEBBE09A3196A3
S1130BA00DB20D9241505040B8F70895262FE199A7
S1130BB0FECF9FBB8EBB2DBB0FB6F894E29AE19A91
S1130BC00FBE01960895052E97FB16F4009407D0E6
S1130BD057FD0DD00E94120607FC09D07EF49095B3
S1130BE08095709561957F4F8F4F9F4F08955095D5
S1130BF04095309521953F4F4F4F5F4F08950E9488
S1130C003406A59F900DB49F900DA49F800D911D57
S1130C1011240895B7FF0C94FF050E94FF05821B61
S1130C20930B0895A1E21A2EAA1BBB1BFD010DC054
S1130C30AA1FBB1FEE1FFF1FA217B307E407F50788
S1130C4020F0A21BB30BE40BF50B661F771F881F64
S1130C50991F1A9469F760957095809590959B01FA
S1130C60AC01BD01CF010895A29FB001B39FC001A3
S1130C70A39F01D0B29F700D811D1124911D089571
S1070C80F894FFCF12
S1130C84010000003F065B4F666D7D077F6FB8224D
S9030000FC
