:1000000012C064C129C028C027C0F2C0C5C025C025
:1000100048C022C021C020C01FC01EC01DC01CC0BF
:100020001BC01AC019C011241FBECFEDCDBF10E0F8
:10003000A0E6B0E0E0E5F3E002C005900D92A63640
:10004000B107D9F710E0A6E6B0E001C01D92AE38C6
:10005000B107E1F76DD17AC1D3CF1F920F920FB6DE
:100060000F9211242F938F939F93EF93FF93E0911F
:100070008C008E2F8F5F8F709CB120918B00821728
:1000800031F0F0E0E558FF4F908380938C00FF91B2
:10009000EF919F918F912F910F900FBE0F901F9016
:1000A00018951F920F920FB60F9211248F939F9362
:1000B000EF93FF9380918D0090916A00891759F01A
:1000C000E82FF0E0E559FF4F90819CB98F5F8F706A
:1000D00080938D0001C05598FF91EF919F918F9172
:1000E0000F900FBE0F901F90189580918C009091EB
:1000F0008B00891B8F70089590918B0080918C00EC
:10010000981751F0E92FF0E0E558FF4F80819F5F8D
:100110009F7090938B00089580E00895E0916A00AD
:100120009E2F9F5F9F7020918D00921739F0F0E015
:10013000E559FF4F808390936A00559A089587E6AA
:1001400089B912B888E98AB908951BBA1ABA18BAD7
:1001500087E087BB84E082BB88E081BB10BE83E080
:1001600083BF8EEF82BF16BE1CBE1FBC92E09EBD39
:100170001DBC1CBC15BC14BC1BBC1ABC19BC18BCD7
:1001800080E48BBF95BF8ABF82E889BF1DB81AB8CB
:1001900080E888B911B808951F920F920FB60F9298
:1001A00011248F939F938EEF82BF8091680090916E
:1001B0006900891710F4C09801C0C09A909164003A
:1001C000891710F4C19801C0C19A8091680090917C
:1001D0006300891710F4C29801C0C29A8F5F8093A0
:1001E00068009F918F910F900FBE0F901F901895F0
:1001F0001F920F920FB60F9211248F939F9390919D
:10020000620080916900913079F4909167009923A0
:1002100019F48E3728F002C08D3F10F01092620062
:10022000809169008F5F06C0823019F491E090934D
:100230006200815080936900909161008091640018
:10024000913079F490916700992319F48E3728F052
:1002500002C08D3F10F010926100809164008F5FAA
:1002600006C0823019F491E0909361008150809330
:1002700064009091600080916300913079F49091D6
:100280006700992319F48E3728F002C08D3F10F0D3
:1002900010926000809163008F5F06C0823019F475
:1002A00091E090936000815080936300809166009C
:1002B0008F5F809366008B3F10F0109267009F91D4
:1002C0008F910F900FBE0F901F9018951F920F9255
:1002D0000FB60F9211248F9381E0809367001092E4
:1002E00066008F910F900FBE0F901F901895939AF4
:1002F0008FEE90E00197F1F700C000008AEA0EDF70
:100300008FE599E00197F1F700C0000085E506DF71
:100310008FE599E00197F1F700C000008AEAFEDE60
:100320008FE599E00197F1F700C0000093980895D8
:100330000CDF05DF7894DBDF8FE798E3A1E08150E5
:100340009040A040E1F700C00000F5CFF894FFCF47
:06035000010101AA5500A5
:00000001FF
